:020000040000fa
:080000000002040000000000f2
:020000040000fa
:100008009e0200009e0200009e0200009e02000068
:100018009e020000ec3100009e0200009e020000db
:100028009e0200009e0200009e0200000c360000a6
:10003800d23100009e0200009e020000042a000047
:100048009e0200009e0200009e020000c22e0000d8
:100058009e0200009e0200009e0200009e02000018
:100068009e0200009e0200009e020000563500001d
:100078009e0200009e0200009e0200009e020000f8
:100088009e0200009e0200009e0200009e020000e8
:10009800163100009e0200009e0200005832000047
:1000a8009e0200009e0200009e0200009e020000c8
:1000b8009e0200009e0200009e0200009e020000b8
:1000c8009e0200009e0200009e0200009e020000a8
:1000d8009e0200009e0200009e020000f810000030
:1000e800d43400009e0200009e020000b2370000d7
:1000f8009e0200009e0200009e0200009e02000078
:100108009e0200009e0200009e0200009e02000067
:100118009e0200009e0200009e0200009e02000057
:100128009e0200009e020000703200009e02000045
:100138009e0200009e0200009e0200009e02000037
:100148009e0200009e0200009e0200009e02000027
:100158009e0200009e0200009e0200009e02000017
:100168009e0200009e0200009e0200009e02000007
:100178009e0200009e0200009e0200009e020000f7
:100188009e0200009e0200009e0200009e020000e7
:100198009e0200009e0200009e0200009e020000d7
:1001a8009e0200009e0200009e0200009e020000c7
:1001b8009e0200009e0200009e0200009e020000b7
:1001c8009e0200009e0200009e0200009e020000a7
:1001d8009e0200009e0200009e0200009e02000097
:1001e8009e0200009e0200009e0200009e02000087
:0801f8009e0200009e020000bf
:020000040000fa
:100208009e0200009e0200009e0200009e02000066
:100218009e020000ec3100009e0200009e020000d9
:100228009e0200009e0200009e0200000c360000a4
:10023800d23100009e0200009e020000042a000045
:100248009e0200009e0200009e020000c22e0000d6
:100258009e0200009e0200009e0200009e02000016
:100268009e0200009e0200009e020000563500001b
:100278009e0200009e0200009e0200009e020000f6
:100288009e0200009e0200009e0200009e020000e6
:10029800163100009e0200009e0200005832000045
:1002a8009e0200009e0200009e0200009e020000c6
:1002b8009e0200009e0200009e0200009e020000b6
:1002c8009e0200009e0200009e0200009e020000a6
:1002d8009e0200009e0200009e020000f81000002e
:1002e800d43400009e0200009e020000b2370000d5
:1002f8009e0200009e0200009e0200009e02000076
:100308009e0200009e0200009e0200009e02000065
:100318009e0200009e0200009e0200009e02000055
:100328009e0200009e020000703200009e02000043
:100338009e0200009e0200009e0200009e02000035
:100348009e0200009e0200009e0200009e02000025
:100358009e0200009e0200009e0200009e02000015
:100368009e0200009e0200009e0200009e02000005
:100378009e0200009e0200009e0200009e020000f5
:100388009e0200009e0200009e0200009e020000e5
:100398009e0200009e0200009e0200009e020000d5
:1003a8009e0200009e0200009e0200009e020000c5
:1003b8009e0200009e0200009e0200009e020000b5
:1003c8009e0200009e0200009e0200009e020000a5
:1003d8009e0200009e0200009e0200009e02000095
:1003e8009e0200009e0200009e0200009e02000085
:0803f8009e0200009e020000bd
:020000040000fa
:100400006f5821000e7d24000e01880000000000be
:10041000000020000000e000020032000001200087
:10042000200288000c000700203a23000100200071
:1004300011000700000020000000e0000200320070
:1004400000000200000000001a2602000000000068
:100450000040da000000fe004440a900204a2000cd
:100460000000e0000300320000002000a00188002e
:100470004440a80000000600910188008000780038
:100480000000eb0015003700e280400032a0b4000d
:100490009101ba00e280400032a0b4009102ba009b
:1004a000e280400032a0b4000002eb00472bde00e7
:1004b000f507b200602ce10004003a000059eb009f
:1004c0008301e900fdff3e00040037006128e100e0
:1004d000010032000082eb00040007001101ba00a5
:1004e0000200e000e8ff3a00000006003159ba00bf
:1004f0008301e9000c0032002159ba008301e900b0
:10050000080032000400e00003003a00e2804000ee
:1005100032a0b400f5ff370011d9ba008301e90019
:10052000faff3a008100e800e180400032a0b40008
:100530000000060018330400000000000040da004c
:100540000000fe008508800000027800e08f520065
:10055000050035001061a80005002800860880000d
:10056000868272008508880030088000410880007b
:10057000e00f520001003200008abe0000000600b9
:1005800003f0a200889fbe008a9fbe008c1f7800e7
:100590009b010700a20133006450e1004f003200cc
:1005a0006420e1005200320003826c0007003b002f
:1005b0000905d0000306d000820f54000c065d0030
:1005c0000200390002003200890178000306780039
:1005d0008582550004003d000003fd008103fd00fd
:1005e0008502ea008b854200840f720002003b0006
:1005f00060001000e08018006011b8000005eb00fa
:100600007a28e1000a00390006007800c75ddd00a5
:10061000f707b200878075002d00370082817100d6
:100620000a017800610560008180d1000080d3005c
:100630008502e900f9ff3b0006044000878448007a
:1006400002003b0060041400e0841c000988a30041
:10065000070032008a8171008281710061016400ab
:100660008904d1000884d3008b05e8001700370007
:100670000978a30013003a000b00e00013003400d7
:100680008b05e9000804440089844c000a44740086
:100690000978a3000d003a000b00e00007003400c9
:1006a0008b05e9000804440089844c0001003a00ed
:1006b0000b0020000978a300f7ff32000001eb00d7
:1006c00002003700828171000a01780011010700e1
:1006d0000cf0a70001f0a0005a0137006420e100ef
:1006e00002003a00838f6c005a0133000801be00fb
:1006f0000200be0053013700889fbe008a9fbe00e3
:100700008c1f78003e0107001002200002003b0011
:1007100020ac8800420137008a0062006408e100d2
:1007200002003a0020ac88004a0137006108e1006d
:10073000fcff32000800be000304780070000700d0
:1007400001f0a1000900070008f0a600040037002e
:100750000001be0091042400b0fd200088ff0700c6
:1007600009f0a70001f0a20036013700889fbe0003
:100770008a9fbe008c9fbe000004be000b010700d4
:100780000800be00890678006420e10008003900f6
:10079000040032000160a0001202200022ac880098
:1007a0005300370091fc2300b0fd20004e003700bd
:1007b0000006eb0009f0a10003f82300020020006e
:1007c0000800be00900007000600340001f8230076
:1007d000000020000801be00490007000004be0020
:1007e0002c0020000800be0093e82300320a2300fa
:1007f00085000700120034000801be00d1fd23006f
:10080000703d2b005fff07000005be00b3f323001f
:10081000f27a26000800be001101070003f8230049
:100820000200200056ff07000801be0055ff070028
:100830000a01be00320007000004be000c06e800fa
:100840000800be0001f0a100020020000398230070
:100850006d0007000800be00160035000801be004c
:10086000ff0007000005be0032cd2c0043fb230033
:1008700044ff0700809fbe001269280003d52b00ab
:100880000a00be00f6000700620f210013ef2b00e4
:100890003cff07000a01be00f10007004f01be0047
:1008a000170007000801be00ed0007000801be00a8
:1008b00034ff07000c00e0000b0032000c10a70012
:1008c00001f0a200b2fd200093fc23006260e10071
:1008d0000400320022a9200063f023000c10a700be
:1008e00063f8230027ff07000df0a70001f0a20026
:1008f0004f06be004f05be004f04be0000000600bc
:10090000889fbe008a9fbe008c1f7800bc00070035
:10091000c300330003866c006450e1002e003200f7
:100920006420e100330032006150e1002f0032000a
:100930006120e1003100320085855500eb07b000f1
:1009400009002000080420000500370008044400c6
:1009500089844c000a0031000603430087834b0062
:100960000001530081815b00f8ff33000203be00e9
:100970000800a0000804440089844c00f6ff3900f8
:10098000c639dd008301730001003200130020002e
:100990008904d1000884d3000998a300050032001f
:1009a0000800a7000300a0008904d1000884d30038
:1009b0008b05e8008904d1000884d3000001eb0016
:1009c0000281d2005300070001f0a1000cf0a70043
:1009d00001f0a0009b0037006420e1009d00320080
:1009e0000801be000200be00f7ff37006120e100f1
:1009f000980032006000b800f3ff370000002000cc
:100a000001f82700f0ff370014002000c80037006d
:100a1000f4ff2f00c60037000001be00630007008e
:100a20000470a70003f0a1006509b10016003200b0
:100a30000d0035006828e10006003500f0ff2f00aa
:100a4000f1ff27000300e00013003b000100280035
:100a50000000050000004000818048008502e90098
:100a6000fcff3a0008003700f88f420002003c000b
:100a70008000eb00000005008100d1000080d30061
:100a80008502e800fcff3a000300e00002003b00a2
:100a900060001000e0801800000006000001be00a9
:100aa000420007000470a70003f0a10003f8a300b0
:100ab00013003a006509b10010003200090035004a
:100ac0006928e1000200350001002800000005004f
:100ad00000004000818048008502e900fcff3a00e8
:100ae00000000600f88f4200050035008100d100ab
:100af0000080d3008502e800fcff3a0000000600f9
:100b00008000eb00000005004f89de0082017800c4
:100b1000a200370081002000618055000b003d00dd
:100b20000b00200061fe2f000100e1001d003400d9
:100b300082817100610164008904d1000884d300be
:100b40000000e800faff3a00710020006100640034
:100b500003007000020060000900320061044400dc
:100b6000e0844c000988a500050032008b05e800f0
:100b70006808e10002003a008904d1000884d3002b
:100b8000f20f20000258e10005003d00c75ddd00c6
:100b9000f907b2008980750008007800000006009f
:100ba0000bf827008b00780000000500c70ade0064
:100bb000f107b200f50fb20008003200e1cf4200a9
:100bc000020032000170a00024000500810f7000b7
:100bd000010032000408050044000500810f700088
:100be00002003a00140005008502e9000000400000
:100bf00081c04800fcff3b000170a00024000500fc
:100c00000004be00e9ff07000003be000405be00ab
:100c10000200be00e5ff0700844f750000000600db
:100c20000200be006450e100050036006420e100cf
:100c3000020036000968a30001003a000800be0067
:100c40000160a0004f0678004f05be004f04be00b3
:100c500000000600f0ff2f00f1ff2700f9ff37002a
:100c6000889fbe008a9fbe008c1f7800e4ff0700ab
:100c7000ebff330003866c006450e1002400320077
:100c80006420e100270032006150e10022003200c0
:100c90006120e100210032008b854200eb07b100aa
:100ca0000134b800003ab8000804420089844a00c0
:100cb000013ab8000030b8008880400009014a00bd
:100cc0000400330000004000818048000201490018
:100cd0008b05e900c909dd008301700001003200c5
:100ce00013002000c814de004814dd004709de00b0
:100cf0001200b200c808de000884700085ff0700fb
:100d000001f0a1000cf0a70001f0a000cdff37001a
:100d10006120e100cfff32000801be000200be00ea
:100d2000f7ff37006150e100fcff3a00c9ff3700d0
:100d3000889fbe008a9fbe00841f7800b0ff070016
:100d40004f00780011003300f0ff2f00838f6c00fc
:100d500006003b00040565000a00a70008003700f4
:100d600009f0a6001000200008003700820f540090
:100d7000838f5c00030039001000200001003e005a
:100d80000000200009f0a7000000ea004f05be00a7
:100d90004f04be000000e00000000600881f78003d
:100da000030478000300e00007003d00600010002d
:100db000e080180060011900e081190002003b008a
:100dc00001f02d00030037000400070008f0a70021
:100dd00001f0a0004f04780000000600889fbe00cc
:100de0008a9fbe00008270000402710004827100bc
:100df000260032000004be000200be006011b800f0
:100e00006b092000950220000182cf000a00390002
:100e10000541b1000082cf00070039000541b10053
:100e20000982cf00040039000541b1000882cf00db
:100e3000010039000541b1000542520012003200a4
:100e40000a003b0082817100610164008100d100d1
:100e50000080d3008984d3000884d3008b05e80088
:100e60000442e800f7ff3a00070037000804440096
:100e700089844c0000004800818048008b05e9000f
:100e80000442e900f9ff3a0022ff07004f05be00c7
:100e90004f04be00000006000000eb00a9fd370073
:100ea0000002780002003700315a78000201e900a0
:100eb000e00f5100fcff3a0000000600b04278004d
:100ec00031c2520002003a00e0cf5200fbff3a006c
:100ed0000400fb000000060000027800b142780028
:100ee000055a7800e0cf5200fcff3a0000000600ef
:100ef000000278008042eb00b4cf1200fdff3a0000
:0c0f00000080ea00000042000000060033
:020000040000fa
:100f0c0041700000756e00007465000020650000e3
:100f1c006c200000656a000065200000582000006d
:100f2c006861000063690000612000006c610000d2
:100f3c0020740000696500007272000061200000de
:100f4c00792000007072000065730000696f00006a
:100f5c006e650000202200004e220000206f000071
:100f6c00202200006e2200000d0a00000049000043
:100f7c006e6300006c6900006e650000206c000060
:100f8c006967000065720000616d0000656e00000d
:100f9c0074650000206c000061200000706c000083
:100fac00616300006120000068610000636900005b
:100fbc0061200000746f0000646f0000732000005b
:100fcc006c6f0000732000006c610000646f000007
:100fdc007320000079200000707500006c73000015
:100fec0061720000202200004e220000206f0000e1
:100ffc00202200006e2200000d0a000000410000bb
:10100c00707500006e74000065200000656c0000b7
:10101c00206500006a650000205800002068000070
:10102c006163000069610000206500006c20000015
:10103c0063690000656c00006f20000079200000df
:10104c007072000065730000696f00006e6500002f
:10105c00202200004e220000206f00002022000001
:10106c006e2200000d0a00000041000070750000a7
:10107c006e74000065200000656c000020650000a7
:10108c006a650000205900002068000061630000c0
:10109c0069610000206c0000612000007469000090
:1010ac006572000072610000207900002070000061
:1010bc0072650000736900006f6e0000652000000f
:1010cc00224e0000222000006f200000226e000043
:1010dc00220d00000a00000041700000756e000037
:1010ec0074650000206500006c200000656a00003b
:1010fc006520000059200000686100006369000051
:10110c0061200000656c0000206300006965000030
:10111c006c6f0000207900002070000072650000e8
:10112c00736900006f6e000065200000224e000005
:10113c00222000006f200000226e0000220d000013
:10114c000a00000041700000756e0000746500001c
:10115c00206500006c200000656a0000652000001e
:10116c005a200000686100006369000061200000e3
:10117c006c61000020740000696500007272000050
:10118c00612000007920000070720000657300007f
:10119c00696f00006e650000202200004e220000e6
:1011ac00206f0000202200006e2200000d0a0000bb
:1011bc0000410000707500006e7400006520000096
:1011cc00656c0000206500006a650000205a000074
:1011dc002068000061630000696100002065000068
:1011ec006c20000063690000656c00006f2000003b
:1011fc00792000007072000065730000696f0000b8
:10120c006e650000202200004e220000206f0000be
:10121c00202200006e2200000d0a0000002b0000ae
:10122c002b2b00002b2b00004d2b00002b2b000038
:10123c002b2b00002b2b00002b2b00002b50000025
:10124c002b2b00002b2b0000442b00002b2b000021
:10125c002b2b0000492b00002b2b00002b00000037
:10126c002b2b00002b2b00002b4d00002b2b0000f8
:10127c002b2b00002b2b00002b2b00002b2b00000a
:10128c00412b00002b2b00002b2b00002b470000c8
:10129c002b2b00002b2b00002b2b00002b2b0000ea
:1012ac0000000000002b00000d0a0000005300009d
:1012bc00462c0000310d00000a000000534e0000c7
:1012cc002c4d0000617200006b6500006c5000003a
:1012dc00690d00000a000000535200002c3300007e
:1012ec00323000003630000030300000300d00008d
:1012fc000a000000410d00000a000000590d00001a
:10130c000a000000522c0000310d00000a00000001
:10131c00420d00000a000000560d00000a000000fb
:10132c00677200000d0a0000006700006e0d0000df
:10133c000a000000736e00000d0a00000077000028
:10134c00630d00000a000000000000005889000036
:10135c0001000000588900000200000059890000bb
:10136c00090000005d89000008000000648900008d
:10137c000a000000728900000d0000008089000046
:10138c000b000000848900000c000000888900001c
:10139c000e000000588900000f0000008e8900002c
:1013ac0003000000928900000400000096890000f0
:1013bc00050000009b89000006000000a0890000c9
:1013cc0007000000a5890000200000004552000025
:1013dc00520d00000a000000414f00004b0d0000b0
:1013ec000a000000414f00004b3100000d0a0000c4
:1013fc00004100004f4b0000320d00000a000000bd
:10140c00434d0000440d00000a000000456300003d
:10141c00686f0000204f00006e0d00000a000000f5
:10142c0045630000686f0000204f000066660000f6
:10143c000d0a000000520000656200006f6f000092
:10144c00740d00000a000000436f00006e6e000077
:10145c006563000074650000640d00000a00000064
:10146c00436f00006e6e000065630000746900003d
:10147c006f6e0000204500006e6400000d0a000035
:10148c00004200006f6e000064650000640d0000f7
:10149c000a0000004d4c0000445000000d0a0000f2
:1014ac000000000000000000ea89000001000000bc
:1014bc00ec89000002000000f2890000030000002b
:1014cc00f889000004000000ff89000005000000fe
:1014dc00068a0000060000000c8a000007000000cd
:1014ec00168a000008000000218a00000900000094
:1014fc002a8a00000a000000368a00000b00000057
:10150c00478a00000c000000508a00000000000018
:10151c0001000000090000000300000004000000ae
:10152c00050000000a000000080000000c0000008c
:10153c000e0000002000000053330000474600005e
:10154c000d0a00000053000036470000420d000059
:10155c000a00000053340000545200000d0a000031
:10156c0000530000355400004c0d00000a00000030
:10157c00535400004f5000000d0a00000000000002
:10158c0000000000a08a000001000000a28a0000f8
:10159c0002000000a98a000003000000b08a0000cd
:1015ac0004000000b78a000005000000be8a00009d
:1015bc00443100004f4e00000d0a000000440000b2
:1015cc00314f0000464600000d0a000000440000a8
:1015dc00324f00004e0d00000a00000044320000a3
:1015ec004f460000460d00000a0000005331000079
:1015fc004f4e00000d0a000000530000314f000058
:10160c00464600000d0a000000530000324f000057
:10161c004e0d00000a000000533200004f4600003f
:10162c00460d00000a00000000000000a08a000027
:10163c0001000000de8a000002000000e58a0000c4
:10164c0003000000ed8a000004000000f48a000092
:10165c0005000000fc8a000006000000038b00005f
:10166c00070000000b8b000008000000128b00002c
:10167c00437200006f6e00006f6d00006574000017
:10168c00726f0000204c000043440000202000003a
:10169c000050000072650000736900006f6e00005e
:1016ac0065200000533300002020000020200000a3
:1016bc0020000000437200006f6e00006f6d000090
:1016cc0065740000726f00002d2d00002d2d0000a0
:1016dc002d2d00002d2d00002d2d00002d2d000096
:1016ec002d2d00002d300000303a0000303000006d
:1016fc002e30000000a60000d03c0000321d00007f
:10170c0003530000463e000043410000447c0000af
:10171c00533300002d530000343e0000504c0000a9
:10172c0059430000726f00006e6f00003a200000f9
:10173c002d2d00002f2d00002d2f00002d2d000031
:10174c002000000041750000746f00002041000073
:10175c006476000065720000746900007365000017
:10176c002e2e0000004300006f6e00006e6500001e
:10177c0063740000656400002e2e00002020000021
:10178c00202000002000000044690000736300006a
:10179c006f6e00006e6500006374000065640000ed
:1017ac002e2e0000202000000000000044650000e8
:1017bc006a650000206c000061200000706c000065
:1017cc006163000061200000717500006965000014
:1017dc00746100002079000020700000756c00001e
:1017ec0073650000202200004e220000206f0000d4
:1017fc00202200006e2200000d0a000000000000f4
:10180c00533600003e430000414400007c5300006e
:10181c00332d0000533400003e5000004c590000a2
:10182c00437200006f6e00006f3a0000202d000024
:10183c002d2f00002d2d00002f2d00002d2000003d
:04184c000000000098
:020000040000fa
:101850000000fa002de1a9002c21a9002cc1a9004b
:10186000640980000440a1000450a00064098800bd
:101870000002eb001409880054c3200044098800ca
:10188000d405800004c0a10004d0a00004e0a000a2
:10189000d405880089e0a90099e0a9002de1a800fd
:1018a00004002000553a2400949f8800a59f8800da
:1018b00004002000a51c2400b49f8800c59f880058
:1018c00004002c00f5482400d49f8800e59f880080
:1018d0006022b800149f8800259f8800f400200033
:1018e000349c88006022b800349f8800459f88009f
:1018f0006022b800549f8800659f88006022b8006d
:10190000749f8800859f88000080fa000000060010
:101910000000fa00889fbe0004012000349c88006b
:10192000f49f800005a08000f49e8800059f880039
:10193000969f8000a79f8000f49e8000059f8000f6
:101940000401be000600be00c5fc07000002be0088
:10195000349f8800459f8800f69e8000079f800086
:10196000149f8000259f80000401be000600be0079
:1019700003fb07000002be00749f8800859f88005b
:10198000f49e8000059f80000400be0022fc07003a
:101990000002be000402780004f0a7000402ea007e
:1019a000cfa2de000400be0057fc07000002be000c
:1019b00018c0b30002002000030a24000400be0087
:1019c00011fc070000027800e00f52000100340013
:1019d0000044eb00e04f540035003200b69f800019
:1019e000c79f8000f49e8000059f80000401be0018
:1019f0000600be009afc07000002be000403be0001
:101a0000549f8000659f80000401be000600be0058
:101a1000dcfa07000002be00549f8800659f880022
:101a2000549f8000659f800018c0b3000200200012
:101a3000a35f24000400be00f5fb0700000278004d
:101a4000e00f520001003c000044eb00e04f540066
:101a50000500320004002000a55f2400549f880088
:101a6000659f88004b003700549f8000659f800071
:101a700018c0b30002002000a35f2c000400be00c9
:101a8000e1fb070000027800e00f52000100350082
:101a90000044eb00e04f54003e0032000400200000
:101aa000a55f2c00549f8800659f8800390037008f
:101ab000f49e8000059f800018c0b3006011b8003c
:101ac0000400be00d2fb070000027800e00f5200c5
:101ad00001003d000044eb00e04f540017003200cd
:101ae000b69f8000c79f8000f49e8000059f800005
:101af0000401be000600be0059fc07000002be0043
:101b000002002000030024000400be007cfb07004c
:101b10000002be000403be00549f8000659f800049
:101b20000401be000600be0096fa07000002be00d7
:101b3000549f8800659f880016003700b69f80007c
:101b4000c79f8000f49e8000059f80000401be00b6
:101b50000600be0042fc07000002be00020020009a
:101b6000030024000400be0065fb07000002be0065
:101b70000403be00549f8000659f80000401be00e6
:101b80000600be007ffa07000002be00549f8800d6
:101b9000659f8800369f8000479f8000549f80008b
:101ba000659f80000401be000600be0075fa0700b4
:101bb0000002be000404be00d69f8000e79f8000a4
:101bc000749f8000859f80000401be000600be0057
:101bd00023fc07000002be000401be000800be0096
:101be00068fa07000002be0084a0880095a0880063
:101bf00084a0800095a0800018c0b30002002000df
:101c0000a35f2c000400be007ffb070000027800e9
:101c1000e00f5200010035000044eb00e04f54009b
:101c20000500320004002000a55f2c0084a088007d
:101c300095a088001100370084a0800095a0800046
:101c400018c0b30002002000a35f24000400be00ff
:101c50006ffb070000027800e00f520001003d001a
:101c60000044eb00e04f5400040032000400200068
:101c7000a55f240084a0880095a0880084a080002f
:101c800095a080000400be0063fb07000002be00b8
:101c900004027800d49e8800d49e8000e49e8800d0
:101ca000f49e8000059f8000149f8800259f880077
:101cb0004f04be000080fa00000006000800fa0091
:101cc000889fbe00008fbe0022079800330798004f
:101cd000b4a08000c5a080000401be002e009000ca
:101ce000be00900026fa07000002be000403be00fa
:101cf00014a7800025a780000401be000600be00d6
:101d0000d7fb07000002be000403be00f49f800062
:101d100005a080000401be000600be0019fa0700fd
:101d20000002be00f49f880005a08800b6a68000cf
:101d3000c7a6800054a6800065a680000401be00ee
:101d40000600be000efa07000002be000403be003b
:101d500074a6800085a680000401be000600be00b7
:101d600007fa07000002be0074a1880085a1880060
:101d700094a68000a5a6800005f0a20094a188008a
:101d8000a5a1880094a68000a5a6800005f0a20069
:101d9000b4a18800c5a18800d4a68000e5a6800073
:101da000d4a18800e5a1880038a6800049a680005b
:101db00076a1800087a1800014a7800025a780005d
:101dc0000401be000600be00a5fb07000002be0025
:101dd0000401be000800be00eaf907000002be00d0
:101de00034a6880045a6880058a6800069a6800011
:101df00096a18000a7a1800014a7800025a78000dd
:101e00000401be000600be0095fb07000002be00f4
:101e10000401be000800be00daf907000002be009f
:101e200054a6880065a6880078a6800089a6800050
:101e3000b6a18000c7a1800014a7800025a780005c
:101e40000401be000600be0085fb07000002be00c4
:101e50000401be000800be00caf907000002be006f
:101e600074a6880085a6880098a68000a9a6800090
:101e7000d6a18000e7a1800014a7800025a78000dc
:101e80000401be000600be0075fb07000002be0094
:101e90000401be000800be00baf907000002be003f
:101ea00094a68800a5a68800f49f800005a0800065
:101eb0000401be001e00be00b1f907000002be0012
:101ec000d4a08800e5a08800644e21001442780068
:101ed0000402fb00cfa2de000400be000afb0700e4
:101ee0000003be0034a6800045a680000401be00a9
:101ef0000600be005afb07000002be00f4a18800e5
:101f000005a28800644e2100144278000402fb0000
:101f1000cfa2de000400be00fbfa07000003be00f3
:101f200074a6800085a680000401be000600be00e5
:101f30004bfb07000002be0014a2880025a2880007
:101f4000644e2100144278000402fb00cfa2de00a0
:101f50000400be00ecfa07000003be00f4a18000fc
:101f600005a280000401be000600be003cfb070085
:101f70000002be000403be00f4a6800005a7800096
:101f80000401be000600be007ef907000002be008c
:101f900034a2880045a28800f6a1800007a2800034
:101fa00034a2800045a280000401be000600be00ed
:101fb00053fa07000002be00f4a0880005a18800c3
:101fc00016a2800027a2800034a2800045a28000d3
:101fd0000401be000600be0049fa07000002be0070
:101fe00014a1880025a18800f4a1800005a280002a
:101ff00034a1880045a18800644e21001442780075
:102000000402fb00cfa2de000400be00befa0700ff
:102010000003be0054a6800065a680000401be0037
:102020000600be000efb07000002be0054a188009f
:1020300065a1880038a6800049a68000f6a080002f
:1020400007a1800034a1800045a180000401be00ea
:102050000600be0002fb07000002be000401be0035
:102060000800be0046f907000002be0034a6880042
:1020700045a6880058a6800069a68000f6a08000ca
:1020800007a1800054a1800065a180000401be006a
:102090000600be00f2fa07000002be000401be0006
:1020a0000800be0036f907000002be0054a68800f2
:1020b00065a6880078a6800089a6800016a1800009
:1020c00027a1800034a1800045a180000401be004a
:1020d0000600be00e2fa07000002be000401be00d6
:1020e0000800be0026f907000002be0074a68800a2
:1020f00085a6880098a68000a9a6800016a1800069
:1021000027a1800054a1800065a180000401be00c9
:102110000600be00d2fa07000002be000401be00a5
:102120000800be0016f907000002be0094a6880051
:10213000a5a68800f6a0800007a18000d4a080009a
:10214000e5a080000401be000600be00c4fa07003e
:102150000002be000403be00f49f800005a08000c2
:102160000401be000600be0006f907000002be0022
:10217000f49f880005a0880016a1800027a1800098
:10218000d4a08000e5a080000401be000600be00cf
:10219000b3fa07000002be000403be00b4a0800032
:1021a000c5a080000401be000600be00f5f80700cf
:1021b0000002be00b4a08800c5a08800b4a08000c2
:1021c000c5a080000401be002e009000be0090005b
:1021d000ebf807000002be00049288001592880008
:1021e000000000004f04be000080fa00000006005e
:1021f000849fbe00861f78003400f8000400200091
:10220000a40188000000fa0014c0b3000443780061
:1022100045412100864a780089e0a9002401200078
:10222000349c88000080fa003400f9004f037800e5
:102230004f02be00004006000000fa0092c0b3004a
:10224000c1c2b30060cab3002c03070082c0b30050
:10225000d1c2b30060cab3002803070082c0b30034
:1022600011c3b30060cab300240307003400200088
:10227000349c88000080fa00000006000000fa008c
:10228000889fbe0044002000349c880063c0b300d7
:102290001253210021c3b30060cab30060030700da
:1022a00014532100144278008482fb00245321003f
:1022b000144278000482fb004822dd0004824200c0
:1022c000b490880034532100144278008482fb00cb
:1022d00044532100144278000482fb004822dd00b0
:1022e00004824200c49088005453210014427800b4
:1022f0008482fb0064532100144278000482fb00b6
:102300004822dd0004824200d4908800245321003a
:10231000144278008482fb0004f02f0004aab90064
:102320008402780014532100144278000482fb00d8
:1023300004825200cfa2de000400be00f2f90700c2
:102340000002be000200200003b823000400be000b
:1023500043fa07000002be0004918800159188002e
:1023600034532100144278008482fb00445321003e
:10237000144278000482fb004822dd0004824200ff
:10238000cfa2de000400be00dff907000002be009d
:102390000200200003b823000400be0030fa07004a
:1023a0000002be00e4908800f5908800645321008c
:1023b000144278008482fb0004f02f0004aab900c4
:1023c0008402780054532100144278000482fb00f8
:1023d00004825200cfa2de000400be00caf907004a
:1023e0000002be000200200003b823000400be006b
:1023f0001bfa07000002be00249188003591880076
:10240000d4908000cfa2de000400be00bef9070019
:102410000004be00b4908000cfa2de000400be0025
:10242000b9f907000002be000801be000400be00aa
:10243000b1f807000002be00020020004333240070
:102440000400be0006fa07000002be00b2fd200034
:10245000930424000400be0029f907000002be0016
:10246000c4a98800d5a98800c4a98000d5a9800086
:1024700018c0b3006011b8000400be0064f9070082
:1024800000027800e00f520001003c000044eb0025
:10249000e04f54000a003200c6a98000d7a980008e
:1024a00024ab800035ab80000401be000600be00f6
:1024b00033f807000002be00c4a98800d5a988002f
:1024c000c4a98000d5a980000200200003fc2300dd
:1024d0000400be00e2f907000002be00c4a98800a3
:1024e000d5a9880054002000349c88004f04be0009
:1024f0000080fa00000006000e00fa00a400200090
:10250000349c88000042eb00044378009538210099
:10251000864a78006022b8001407980025079800c2
:102520006022b80034079800450798006022b80080
:1025300054079800650798006022b80014079800b7
:1025400025079800b4002000349c88000002eb00ae
:10255000040f78002500370063c0b3001253210038
:1025600021c3b30060cab300ad02070024532100a9
:10257000144278008482fb0004f02f0004aab90002
:102580008402780014532100144278000482fb0076
:1025900004825200cfa2de000400be005af90700f8
:1025a0000002be000200200003b823000400be00a9
:1025b000abf907000002be00049188001591880065
:1025c0001e039000ae0390000491800015918000de
:1025d0000401be000600be00eaf707000002be00cc
:1025e00014079800250798001e0fe8007438210092
:1025f0009e027800848f5200d7ff3400c400200070
:10260000349c88001e029000ae029000020024005c
:10261000c35924000400be00b9f807000002be0040
:102620001407980025079800d4002000349c8800e7
:102630001e029000ae029000149d8800259d880027
:10264000e4002000349c88000080fa0000000600ae
:102650000000fa0009ff070004312100144278004d
:102660008482fb0014312100144278000482fb00b4
:102670004822dd0004824200b49088002431210009
:10268000144278008482fb00343121001442780027
:102690000482fb004822dd0004824200c4908800ce
:1026a00044312100144278008482fb00543121001f
:1026b000144278000482fb004822dd0004824200bc
:1026c000d4908800e430210014427800e04f52009a
:1026d0000a003a000042eb0004437800d5302100a4
:1026e000864a780014c0b30004437800e530210026
:1026f000864a78008620a9009620a8000080fa006b
:10270000000006002200fa0064002000349c8800cb
:102710005491280020000900345f78001e02b100a7
:102720001402b100f49f800005a080000400be00e8
:10273000b9f807000002be00040278000400780027
:10274000de0807003452210014427800044f78005c
:10275000e45121001442780014479800f4512100fc
:102760001442780024479800045221001442780053
:1027700034479800145221001442780044479800ce
:10278000e49e800004007800cc0807003452210049
:102790001442780064479800e45121001442780004
:1027a00074479800f451210014427800044f9800b7
:1027b0000452210014427800144f98001452210052
:1027c00014427800244f980025aa8000f40f2000be
:1027d000848f520009003e0004c5b300444f9800a6
:1027e000b4c2b300544f9800d4c2b300644f9800f1
:1027f00014c3b300744f98002600370025aa800048
:10280000f41f2000848f520009003e0004c5b3006d
:10281000444f9800d4c2b300544f980014c3b3007f
:10282000644f980004c3b300744f98001900370038
:1028300025aa8000f42f2000848f520009003e005a
:1028400004c5b300444f9800b4c2b300544f98007d
:10285000b4c2b300644f980014c3b300744f98001f
:102860000c00370025aa8000f43f2000848f52001e
:1028700008003e0004c5b300444f9800b4c2b30042
:10288000544f980014c3b300644f980004c3b300be
:10289000744f9800949f8000a59f80000400be00a4
:1028a0005df807000002be00040278000400780012
:1028b00082080700e4512100144278000457980070
:1028c000f45121001442780014579800045221005a
:1028d00014427800245798001452210014427800c2
:1028e00034579800d49f8000e59f80000400be000c
:1028f00049f807000002be000402780004007800d6
:102900006e080700e45121001442780064579800d3
:10291000f4512100144278007457980004522100a9
:1029200014427800045f9800145221001442780089
:10293000145f9800b49f8000c59f80000400be0013
:1029400035f807000002be00040278000400780099
:102950005a080700e451210014427800445f9800af
:10296000f451210014427800545f98000452210071
:1029700014427800645f98001452210014427800d9
:10298000745f98000e007800a10d07000e0078001b
:10299000700e070074002000349c88000080fa004c
:1029a000000006002200fa0064002000349c880029
:1029b0006493280020000900345f78001e02b100f3
:1029c0001402b100f49f800005a080000400be0046
:1029d00011f807000002be0004027800040078002d
:1029e000360807003452210014427800044f780062
:1029f000e45121001442780014479800f45121005a
:102a000014427800244798000452210014427800b0
:102a1000344798001452210014427800444798002b
:102a2000e49e80000400780024080700345221004e
:102a30001442780064479800e45121001442780061
:102a400074479800f451210014427800044f980014
:102a50000452210014427800144f980014522100af
:102a600014427800244f980025aa8000f40f20001b
:102a7000848f520009003e0004c5b300444f980003
:102a8000b4c2b300544f9800d4c2b300644f98004e
:102a900014c3b300744f98002600370025aa8000a5
:102aa000f41f2000848f520009003e0004c5b300cb
:102ab000444f9800d4c2b300544f980014c3b300dd
:102ac000644f980004c3b300744f98001900370096
:102ad00025aa8000f42f2000848f520009003e00b8
:102ae00004c5b300444f9800b4c2b300544f9800db
:102af000b4c2b300644f980014c3b300744f98007d
:102b00000c00370025aa8000f43f2000848f52007b
:102b100008003e0004c5b300444f9800b4c2b3009f
:102b2000544f980014c3b300644f980004c3b3001b
:102b3000744f9800c4a98000d5a980000400be008d
:102b4000b5f707000002be00040278000400780018
:102b5000da07070034522100144278001457980015
:102b6000e45121001442780024579800f4512100c8
:102b7000144278003457980004522100144278001f
:102b8000445798001452210014427800545798007a
:102b900084a8800095a880000400be009ef707006e
:102ba0000002be000402780004007800c30707009a
:102bb0003452210014427800045f9800e45121004f
:102bc00014427800145f9800f451210014427800f8
:102bd000245f98000452210014427800345f98006a
:102be0001452210014427800445f98000e007800cf
:102bf000070d07000e007800d60d070074002000b6
:102c0000349c88000080fa00000006000000fa00f2
:102c1000b41820002410880004002100341088001b
:102c20000002eb00041088000002eb001410880082
:102c3000640580000440a0000450a1000460a000ce
:102c40006405880007e2a800040078000080fa000c
:102c5000000006000200fa000602a8000002eb00d5
:102c6000040f7800010037001e0fe80034108000c8
:102c700004427800614262008482fb00140020005c
:102c8000763e20009e037800868f530001003600b8
:102c90000002eb0004826200e00f5200f2ff3a00f3
:102ca000743e20009e027800848f5200020036009d
:102cb00014002000010037000002eb00040078003f
:102cc0000080fa00000006000200fa000622a800b8
:102cd0000002eb00040f7800010037001e0fe8002f
:102ce000341080000402d100614262008482fb0043
:102cf00014002000763e20009e037800868f53004b
:102d0000010036000002eb0004826200e00f520076
:102d1000f2ff3a00743e20009e027800848f520039
:102d20000200360024002000010037000002eb0002
:102d3000040078000080fa00000006000200fa009b
:102d40000642a8000002eb00040f780001003700e3
:102d50001e0fe800341080004222de006142620053
:102d60008482fb0014002000763e20009e03780041
:102d7000868f5300010036000002eb0004826200df
:102d8000e00f5200f2ff3a00743e20009e027800ed
:102d9000848f52000200360034002000010037000a
:102da0000002eb00040078000080fa00000006003a
:102db0000200fa000002eb00040f78000100370067
:102dc0001e0fe800441080004e22de0061426200c7
:102dd0008482fb0014002000763e20009e037800d1
:102de000868f5300010036000002eb00048262006f
:102df000e00f5200f2ff3a00743e20009e0278007d
:102e0000848f520002003600540020000100370079
:102e10000002eb00040078000080fa0000000600c9
:102e20000400fa00204798000002eb00040f78002d
:102e3000010037001e0fe800441080004e22de0023
:102e4000614262008482fb0014002000763e200074
:102e50009e037800868f5300010036000002eb00cd
:102e600004826200e00f5200f2ff3a00743e20003c
:102e70009e027800848f5200020036004400200039
:102e800074ab88002e4290000482fb00141088006e
:102e90000002eb00040f7800010037001e0fe8006d
:102ea0004410800004427800614262008482fb008a
:102eb00014002000763e20009e037800868f530089
:102ec000010036000002eb0004826200e00f5200b5
:102ed000f2ff3a00743e20009e027800848f520078
:102ee0000200360044002000010037000002eb0021
:102ef000040078000080fa00000006000600fa00d6
:102f00002047980031479800424798000002eb00a4
:102f100074ab8800a6ff070000027800e00f5200a3
:102f2000020032005400200074ab880049ff070003
:102f300000027800e00f520002003200140020006e
:102f400074ab88002e409000b5ff070000027800a7
:102f5000e00f5200020032004400200074ab8800f1
:102f600093ff070000027800e00f520002003200d9
:102f70005400200074ab88008c0007000002780029
:102f8000040f78003e409000a5ff07000002780083
:102f9000e00f5200020032004400200074ab8800b1
:102fa00083ff070000027800e00f520002003200a9
:102fb0005400200074ab88007c00070000027800f9
:102fc000040f78004e40900095ff07000002780043
:102fd000e00f5200020032004400200074ab880071
:102fe00073ff070000027800e00f52000200320079
:102ff0005400200074ab880050ff070000027800e6
:10300000e00f5200020032003400200074ab880050
:1030100074ab8000040078000080fa000000060015
:103020000800fa00204798003147980022079800ce
:10303000634798000002eb0074ab88005cff070058
:1030400000027800e00f520002003200540020001d
:1030500074ab8800fffe070000027800e00f52000a
:10306000020032001400200074ab88002e40900053
:103070006bff070000027800e00f520002003200f0
:103080004400200074ab880049ff0700000278006c
:10309000e00f5200020032005400200074ab8800a0
:1030a0004200070000027800040f78003e409000c4
:1030b0005bff070000027800e00f520002003200c0
:1030c0004400200074ab880039ff0700000278003c
:1030d000e00f5200020032005400200074ab880060
:1030e0003200070000027800040f7800f6fe0700a7
:1030f00000027800e00f520002003200240020009d
:1031000074ab88002e4290000404a00004407800b4
:1031100043ff070000027800e00f52000200320077
:103120004400200074ab880021ff070000027800f3
:10313000e00f5200020032005400200074ab8800ff
:103140001a00070000027800040f7800ee4090009b
:103150002e0090005900070000027800e00f520096
:10316000020032009400200074ab880016000700b3
:1031700000027800e00f52000200320074002000cc
:1031800074ab8800edfe070000027800e00f5200eb
:10319000020032003400200074ab880074ab800061
:1031a000040078000080fa00000006000000fa0029
:1031b000441080000482ea004f22de000400780000
:1031c0000080fa00000006000200fa0006a2a80033
:1031d0000682a8000002eb00040f7800010037000f
:1031e0001e0fe800341080004422de0061426200bd
:1031f0008482fb0014002000763e20009e037800ad
:10320000868f5300010036000002eb00048262004a
:10321000e00f5200f2ff3a0006a2a900743e20001f
:103220009e027800848f5200020036007400200055
:10323000010037000002eb00040078000080fa0073
:10324000000006000200fa0006a2a9000682a800fb
:103250000002eb00040f7800010037001e0fe800a9
:10326000341080004422de00614262008482fb0050
:1032700014002000763e20009e037800868f5300c5
:10328000010036000002eb0004826200e00f5200f1
:10329000f2ff3a00743e20009e027800848f5200b4
:1032a0000200360094002000010037000002eb000d
:1032b000040078000080fa00000006000400fa0014
:1032c000000f780021479800120037001f00070008
:1032d00000027800844278001e027800054a7800d7
:1032e0001e0fe800451080000440200004826200a8
:1032f000e00f5200030032008400200074ab88000d
:103300000942a9002e429000e04f52000100320015
:10331000ccff07002e4290000482fb000402ea006a
:103320004f22de0004427800ae4290008542e90060
:1033300025479800e04f5200e4ff3a000002eb00fe
:10334000040078000080fa00000006000200fa0085
:103350000002eb00040f78000662a80001003700ad
:103360001e0fe800441080006202620004f0a70013
:103370000402ea000402e9004f22de0084427800e1
:1033800014c0b300763e20009e037800868f530061
:10339000010034000042eb0004c26200e04f520022
:1033a000efff3a00743e20009e027800848f5200a6
:1033b000020034009400200074ab880004108000e8
:1033c000040078000080fa00000006000400fa0003
:1033d000100798000042eb00044f780015003700fa
:1033e0001e02900014427800044078008cfe070012
:1033f00000027800e00f520002003200d4ff2f00dc
:10340000100037006afe0700451080000400280005
:1034100004826200e00f520002003200e4ff2f003d
:10342000080037001e0290000402e800140798000c
:103430001e4fe8001e427800ff4f5200e8ff3600a2
:103440000002eb00040078000080fa000000060093
:103450000200fa00004f780055fe0700fdfd07004e
:10346000451080000440200004826200e00f5200fa
:10347000020032000082eb002e0037001e40780070
:1034800067fe070000027800e00f520002003200e1
:10349000d4ff2f002700370045fe070045108000ad
:1034a0000440200004826200e00f5200130032004a
:1034b0000082eb001f00370003fe0700451080006c
:1034c0000440200004826200e00f5200020032003b
:1034d0000082eb00170037001e40780050fe070006
:1034e00000027800e00f520002003200d4ff2f00eb
:1034f000100037002efe070001003700000000001a
:103500002aff070000027800e00f5200eaff3a00ad
:103510000afe07004510800004402000048262007b
:10352000e00f5200020032000082eb000100370081
:103530000002eb00040078000080fa0000000600a2
:103540000000fa0084002000349c880002c8b30008
:10355000e1c3b30000cdb30068fe070092c0b30022
:1035600051c1b30000cdb30064fe0700d2c1b30067
:1035700061c1b30000cdb30060fe070012c0b3000c
:10358000e1c3b30000cdb3005cfe070042f60700c4
:103590000002be00a4a88800b5a8880094002000fe
:1035a000349c88000080fa00000006000e00fa003b
:1035b000a4002000349c88000042eb000443780003
:1035c00095382100864a78006022b80014079800d8
:1035d000250798006022b800340798004507980036
:1035e0006022b80054079800650798006022b80070
:1035f0001407980025079800b4002000349c880028
:103600000002eb00040f78005500370063c0b300e0
:10361000a2502100d1c1b30000cdb30080fe07004d
:10362000b4502100144278008482fb00a450210091
:10363000144278000482fb004822dd00048242002c
:10364000cfa2de000400be002ff507000002be007e
:1036500052832700e3d823000400be0080f5070052
:103660000002be0052a32f00e3c823000400be00e6
:103670007bf507000002be00249288003592880086
:10368000c4502100144278008482fb0004f02f0013
:1036900004aab90084027800d450210014427800b2
:1036a0000482fb0004825200cfa2de000400be00b0
:1036b00015f507000002be0052832700e3d823005f
:1036c0000400be0066f507000002be0004928800f8
:1036d00015928800f4502100144278008482fb0087
:1036e000e4502100144278000482fb004822dd00ef
:1036f00004824200cfa2de000400be0002f50700f3
:103700000002be0052832700e3d823000400be005d
:1037100053f507000002be0052a32f00e3c82300a8
:103720000400be004ef507000002be00449288006f
:10373000559288001e039000ae0390000492800012
:10374000159280000401be000600be008df3070044
:103750000002be0014079800250798001e0fe8001d
:10376000743821009e027800848f5200a7ff340035
:10377000c4002000349c88001e029000ae0290001d
:1037800002002400c35924000400be005cf40700ba
:103790000002be0014079800250798003e02900022
:1037a000ce02900002002400c35924000400be0091
:1037b00053f407000002be00340798004507980044
:1037c0005e029000ee02900002002400c359240023
:1037d0000400be004af407000002be00540798002f
:1037e000650798001e029000ae02900002b5260008
:1037f00033e523000400be0062f307000002be00b0
:103800001407980025079800d4002000349c8800f5
:103810001e029000ae029000349e8800459e8800f3
:103820003e029000ce029000549e8800659e880063
:103830005e029000ee029000749e8800859e8800d3
:10384000e4002000349c88000080fa00000006009c
:103850000000fa0063c0b300a2502100d1c1b30040
:1038600000cdb300eefd0700b450210014427800f3
:103870008482fb00a4502100144278000482fb00e3
:103880004822dd0004824200cfa2de000400be0018
:103890009df407000002be0052832700e3d82300f6
:1038a0000400be00eef407000002be0052a32f0089
:1038b000e3c823000400be00e9f407000002be00d4
:1038c0002492880035928800c45021001442780068
:1038d0008482fb0004f02f0004aab900840278005f
:1038e000d4502100144278000482fb00048252006c
:1038f000cfa2de000400be0083f407000002be0079
:1039000052832700e3d823000400be00d4f407004c
:103910000002be000403be00349e8000459e80006d
:103920000401be000600be0015f307000002be0041
:103930000492880015928800f45021001442780007
:103940008482fb00e4502100144278000482fb00d2
:103950004822dd0004824200cfa2de000400be0047
:1039600069f407000002be0052832700e3d8230059
:103970000400be00baf407000002be0052a32f00ec
:10398000e3c823000400be00b5f407000002be0037
:10399000449288005592880004928000159280001d
:1039a000a2702d0033c223000400be00acf4070057
:1039b0000002be000403be0084a8800095a8800019
:1039c0000401be000600be00eef207000002be00c9
:1039d00084a8880095a888000080fa0000000600ee
:1039e0000000fa00e430210014427800e04f520059
:1039f0000b003a0014c0b30004437800d530210016
:103a0000864a780014c0b30004437800e5302100f2
:103a1000864a78008620a9009620a8000602a80001
:103a20000080fa00000006000000fa007004200088
:103a3000790a070080052000770a0700a00320000c
:103a4000750a0700d4918000040078008203070003
:103a500090002000700a07003452210014427800c0
:103a60000482fb00040078006b0a0700e451210087
:103a7000144278000482fb0004007800660a070004
:103a8000f4512100144278000482fb000400780005
:103a9000610a070004522100144278000482fb00ee
:103aa000040078005c0a07001452210014427800d8
:103ab0000482fb0004007800570a0700245221000a
:103ac000144278000482fb0004007800520a0700c8
:103ad000d491800004007800a0020700900020002c
:103ae0004d0a070014522100144278000482fb00a2
:103af00004007800480a07000452210014427800ac
:103b00000482fb0004007800430a0700f4512100fe
:103b1000144278000482fb00040078003e0a07008b
:103b2000e4512100144278000482fb000400780074
:103b3000390a0700d0002000370a0700a000200043
:103b4000350a070070042000330a070090052000a2
:103b5000310a0700a00320002f0a0700e49180002b
:103b6000040078003c030700900020002a0a0700a8
:103b700034522100144278000482fb0004007800d3
:103b8000250a0700e4512100144278000482fb005a
:103b900004007800200a0700f45121001442780044
:103ba0000482fb00040078001b0a07000452210075
:103bb000144278000482fb0004007800160a070013
:103bc00014522100144278000482fb0004007800a3
:103bd000110a070024522100144278000482fb00dd
:103be000040078000c0a0700e491800004007800cb
:103bf0005a02070090002000070a07001452210013
:103c0000144278000482fb0004007800020a0700d6
:103c100004522100144278000482fb000400780062
:103c2000fd090700f4512100144278000482fb00d2
:103c300004007800f8090700e451210014427800dc
:103c40000482fb0004007800f3090700d000200084
:103c5000f1090700a0002000ef0907007004200010
:103c6000ed090700a0052000eb090700a0032000d4
:103c7000e9090700f491800004007800f6020700cb
:103c800090002000e409070034522100144278001b
:103c90000482fb0004007800df090700e4512100e2
:103ca000144278000482fb0004007800da0907005f
:103cb000f4512100144278000482fb0004007800d3
:103cc000d509070004522100144278000482fb0049
:103cd00004007800d0090700145221001442780033
:103ce0000482fb0004007800cb0907002452210065
:103cf000144278000482fb0004007800c609070023
:103d0000f491800004007800140207009000200065
:103d1000c109070014522100144278000482fb00fc
:103d200004007800bc090700045221001442780006
:103d30000482fb0004007800b7090700f451210059
:103d4000144278000482fb0004007800b2090700e6
:103d5000e4512100144278000482fb000400780042
:103d6000ad090700d0002000ab090700a00020002b
:103d7000a90907000080fa00000006000000fa0010
:103d8000e202a900e222a90055070700de02a9000d
:103d9000de22a900dec2a800df02a8000042eb007c
:103da00004437800b5442100864a78004f07070095
:103db0008560a9009560a80010002000b0010700f0
:103dc0000042780004437800a5442100864a780028
:103dd00000902000d1032000730c0700e222a8000d
:103de0000080fa00000006000800fa000042eb0024
:103df000044f78002480200004007800840107002c
:103e00000002780014079800a444210014427800ae
:103e10000482fb0084024200c4a8280004824200fd
:103e20001402780004427800044078005b01070027
:103e30000002780024079800000000000000000045
:103e40001e029000ed0f5200f40032002e0290008e
:103e5000e00f52000b0132002e029000e10f5200e1
:103e600011003a0000882300110020004e0c0700ca
:103e70001e029000e50f520008003a00051780006e
:103e80000410200004826200e00f520003003200a0
:103e900014c0b300044f7800fd00370024c0b30005
:103ea000044f7800fa0037002e029000e20f520013
:103eb0000c003a001e029000e60f52000300320090
:103ec0001e029000e70f520003003a0014c0b30036
:103ed000044f7800ee00370034c0b300044f780080
:103ee000eb0037002e029000e90f52000f003a005d
:103ef0001e029000e20f5200060032001e029000e7
:103f0000e30f5200030032001e029000e40f520043
:103f100003003a0014c0b300044f7800dc003700ff
:103f200044c0b300044f7800d90037002e0290003f
:103f3000ea0f520014003a001e029000e20f5200f5
:103f4000060032001e029000e30f52000300320010
:103f50001e029000e40f520008003a0014c0b300a3
:103f6000044f780000ccb300b109070080ba2800e4
:103f7000dc090700c442a800c50037000042eb007e
:103f8000044f7800c20037002e029000e80f520064
:103f90000f003a001e029000e20f520006003200ad
:103fa0001e029000e30f5200030032001e02900038
:103fb000e40f520003003a0014c0b300044f78002d
:103fc000b30037000042eb00044f7800b000370028
:103fd0002e029000ec0f520018003a001e029000d2
:103fe000e80f520003003a0024c0b300044f7800e9
:103ff000a70037001e029000e20f520009003200b5
:104000001e029000e30f5200060032001e029000d4
:10401000e40f5200030032001e029000e50f520030
:1040200003003a0014c0b300044f78009800370032
:104030000042eb00044f7800950037002e029000fc
:10404000ed0f52000f003a001e029000e20f5200e6
:10405000060032001e029000e30f520003003200ff
:104060001e029000e40f520003003a0014c0b30097
:10407000044f7800860037000042eb00044f7800c0
:10408000830037002e029000ee0f52003f003a00ee
:104090000088230011002000c30b07001e029000bf
:1040a000e90f520016003a000517800004042000b2
:1040b00004826200e00f52001100320024c0b300fd
:1040c000044f780014c0b30004437800b5442100c5
:1040d000864a7800e202a8008460a9009460a800e3
:1040e00005e1a80000ccb3005109070090bb2800ef
:1040f0007c090700c422a800c442a800220037009f
:104100001e029000ea0f52001c003a0005178000c2
:104110000404200004826200e00f520017003a00fd
:1041200024c0b300044f78000042eb000443780041
:10413000b5442100864a7800e202a9001e0b070060
:10414000140b070005e1a9000002eb0014ac880085
:104150008460a9009460a9000002eb0004088800b4
:1041600000ccb30032090700a0bc28005d0907009d
:10417000c442a900c422a900030037000042eb009a
:10418000044f780042003700410037002e029000b3
:10419000ef0f52000f003a001e029000e20f520093
:1041a00003003a0024c0b300044f78003800370001
:1041b0001e029000eb0f520003003a0014c0b3003f
:1041c000044f7800320037000042eb00044f7800c3
:1041d0002f0037002e029000eb0f52002b003a0008
:1041e0001e029000e20f5200060032001e029000f4
:1041f000e30f5200030032001e029000e40f520051
:1042000003003a0014c0b300044f780020003700c8
:104210000042eb00044f78001d0037002e02900092
:10422000e30f52000b003a002480200004007800c5
:104230002ff307000002780004017800218020009d
:10424000c044210016f3070014c0b300044f7800e7
:104250000f0037002e029000e50f520003003a00d5
:1042600014c0b300044f7800090037002e029000fc
:10427000e40f520006003a0014c0b300044f780067
:1042800003003700000000000100370000000000bc
:104290001e427800e14f520026003a00a44421005b
:1042a000144278008482fb0014ab80000402e90011
:1042b000848f52001f003100a44421001442780072
:1042c0000442e80004437800a5442100864a7800af
:1042d000a4442100144278000482fb0084024200be
:1042e000c4a8280004824200140278000400780068
:1042f0001200070000027800340798003e02900088
:104300004222dd008482e800a49a28000482420050
:104310009402780044902000850078000400780022
:10432000edf2070014c0b30004437800259020008c
:10433000864a78000080fa00000006000400fa00b7
:10434000100798000002eb00040f78000b00370004
:104350001e027800c222dd00a49a280004824200d6
:10436000940278001e029000848f520002003a00ee
:104370001e027800060037001e0fe800a4ab800084
:104380009e027800848f5200f1ff39000002eb009a
:10439000040078000080fa00000006000400fa0023
:1043a000204798000002eb00040f7800100037004f
:1043b0002e4290008482fb001e027800040342001b
:1043c000c4a828000402430014027800848f52001d
:1043d00006003a001e02780084024200c4a82800a9
:1043e0000482420014027800060037001e0fe80025
:1043f00014ab80009e027800848f5200ecff3900dd
:104400000002eb00040078000080fa0000000600c3
:104410000400fa00100798000002eb00040f780077
:104420000f0037001e0278004222dd008482e8007f
:1044300084a52800048242001402780084007800d9
:104440001e0090009df2070000027800e00f52006d
:1044500002003a001e027800060037001e0fe80036
:10446000b4ab80009e027800848f5200edff3900cb
:10447000d4002000040078000080fa00000006004c
:104480000400fa00100798000042eb00044f780087
:104490000c0037009e4278000582fb008402420037
:1044a000c4a8280004824200940278001e029000f2
:1044b000848f520002003a001e4278000700370045
:1044c0001e4fe8001e4278008482fb0014ab80007f
:1044d000848f5200efff39000042eb000440780067
:1044e0000080fa00000006000200fa0004178000b5
:1044f0004622de0061426200044f780000c42900b9
:1045000001002000a80a07001e427800e04f520078
:104510000e003200041780004622de006142620075
:104520008482fb001e4278000482fb00848f5200cc
:1045300006003a00b444210014427800e04f5200d3
:104540000200320014c0b300010037000042eb004b
:10455000044078000080fa00000006000200fa0023
:10456000000f78001e027800044278006f4262005b
:104570000443b00004437800e5512100864a7800e6
:10458000e55121009542780094c3b30084cf5200d6
:1045900006003600e45121001442780067424200d0
:1045a00004437800e5512100864a78001e02780015
:1045b00044a2de00044278006f4262000443b0006f
:1045c00004437800f5512100864a7800f551210016
:1045d0009542780094c3b30084cf520006003600a1
:1045e000f4512100144278006742420004437800ed
:1045f000f5512100864a78001e02780048a2de00ac
:10460000044278006f4262000443b0000443780023
:1046100005522100864a7800055221009542780013
:1046200094c3b30084cf5200060036000452210028
:10463000144278006742420004437800055221008a
:10464000864a78001e0278004c22de000442780080
:104650000443b0000443780015522100864a7800d4
:10466000155221009542780094c3b30084cf5200c4
:1046700006003600145221001442780067424200be
:104680000443780015522100864a78000080fa0021
:10469000000006000200fa00000f780004c3b30017
:1046a0008440780010522100014878001452210003
:1046b000144278000443780005522100864a7800ad
:1046c000045221001442780084407800f051210007
:1046d00001487800f4512100144278000443780026
:1046e000e5512100864a7800e45121001442780007
:1046f000844078003052210001487800f470220094
:104700009e027800848f52000a0036009e027800d4
:1047100004712200110009008482d8000002780090
:10472000044278000443b00004437800355221006d
:10473000864a78009e027800047122001100090068
:104740008482d80001027800040f7800743e2000b3
:104750009e027800848f52000a0036009e02780084
:10476000843e2000110009008482d80000027800f5
:10477000044278000443b00004437800e55121006e
:10478000864a78009e027800843e200011000900cd
:104790008482d80001027800040f780034062000db
:1047a0009e027800848f52000a0036009e02780034
:1047b00044062000110009008482d800000278001d
:1047c000044278000443b00004437800f55121000e
:1047d000864a78009e0278004406200011000900f5
:1047e0008482d80001027800040f78001e0278004d
:1047f000e90f52000a0036009e027800a400200053
:10480000110009008482d800000278000442780078
:104810000443b0000443780005522100864a780022
:104820009e027800a4002000110009008482d800b4
:1048300001027800040f78001e027800044278001c
:104840000443b0000443780015522100864a7800e2
:104850000080fa00000006000200fa00000f780055
:1048600004c3b3008440780020522100014878003e
:10487000245221001442780004437800155221008c
:10488000864a78001452210014427800844078004f
:10489000005221000148780004522100144278009f
:1048a00004437800f5512100864a7800f451210034
:1048b0001442780084407800e051210001487800db
:1048c000e45121001442780004437800355221005d
:1048d000864a78001e027800e00f520007003d0073
:1048e000d4c2b300844078003052210001487800df
:1048f0001e02ea0064a988000600370004c2b30063
:104900000443780035522100864a78001e00780062
:1049100060a9880065a980000471220011000900c7
:104920008402d800000278008402780074a9800014
:10493000848f520008003a0074a9800084427800f5
:10494000e45121001442780004c24200044378007c
:10495000e5512100864a780075a98000048f2d005a
:1049600004aab9008402780064a98000048242008d
:1049700064a9880065a98000843e20001100090018
:104980008402d800000278008402780074a98000b4
:10499000848f520008003a0074a980008442780095
:1049a000f45121001442780004c24200044378000c
:1049b000f5512100864a780075a9800084c12f0036
:1049c00004aab9008402780064a98000048242002d
:1049d00064a9880065a98000440620001100090030
:1049e0008402d800000278008402780074a9800054
:1049f000848f520008003a0074a980008442780035
:104a0000045221001442780004c24200044378009a
:104a100005522100864a780075a98000c4f92f004c
:104a200004aab9008402780064a9800004824200cc
:104a300064a9880065a98000a40020001100090075
:104a40008402d800000278008402780074a98000f3
:104a5000848f520008003a0074a9800084427800d4
:104a6000145221001442780004c24200044378002a
:104a700015522100864a780075a9800064ff2f0036
:104a800004aab9008402780064a98000048242006c
:104a900064a9880064a9800084427800245221001f
:104aa0001442780004c24200844078002052210061
:104ab000014878000080fa00000006000200fa00b9
:104ac000000f78001e027800e00f520007003d0042
:104ad000d4c2b300844078003052210001487800ed
:104ae0001e02ea0064a988000600370004c2b30071
:104af0000443780035522100864a78001e00780071
:104b000060a9880065a98000843e2000110009008a
:104b10008402d8000002780024a9880025a980001a
:104b200084c12f0004aab9008402780064a980001f
:104b30008482420044062000110009008402d8004b
:104b40000002780034a9880025a9800084c12f00c4
:104b500004aab9000403780035a98000c4f92f0025
:104b600004aab900040278008402430064a980000a
:104b700084824200a4002000110009008402d800b1
:104b80000002780044a9880025a9800084c12f0074
:104b900004aab9000403780035a98000c4f92f00e5
:104ba00004aab900040278008402430064a98000ca
:104bb0000483420045a9800064ff2f0004aab900c5
:104bc000040278000402430054a9880024a980004c
:104bd000044278000443b00004437800e55121000a
:104be000864a780034a98000044278000443b0006b
:104bf00084407800f05121000148780044a98000e9
:104c0000044278000443b0000443780005522100b8
:104c1000864a780054a98000044278000443b0001a
:104c20008440780010522100014878000080fa008a
:104c3000000006002400fa00000000000000000050
:104c40002b0807005c080700520807000082eb00f1
:104c5000641988000082eb0054198800d807070007
:104c600000a02500212620003003070043fc070098
:104c700000000000000000006d0407000042eb008f
:104c80000443780005212100864a78000042eb00a9
:104c90000443780015212100864a78000042eb0089
:104ca0000443780025212100864a78000042eb0069
:104cb0000443780035212100864a78000042eb0049
:104cc0000443780045212100864a780074b8280002
:104cd000e202470020000900b45a78001402b10033
:104ce00004c3b300044f9800c8f707000000000099
:104cf00051f5070012fa07002cfa0700fef507002d
:104d00000000000000000000000000007408070020
:104d1000cff20700680107005807070002070700e5
:104d20000002eb00a49e88000000000000000000cc
:104d3000000000009456210014427800e14f520018
:104d400004003a000042eb008442780096562100ad
:104d5000054b7800e44b210014427800e14f5200eb
:104d600008003a000042eb008442780046412100ee
:104d7000054b78000042eb0084427800e64b2100ae
:104d8000054b7800a456210014427800e14f5200f0
:104d900005003a005bf607000042eb008442780011
:104da000a6562100054b780094aa8000e10f52001e
:104db0003b003a00000000000000000025aa80002f
:104dc000f40f2000848f52000a003e00949f800060
:104dd000a59f80000200200003f823000400be000d
:104de000e7ed07000002be00949f8800a59f8800a1
:104df0002900370025aa8000f41f2000848f52006c
:104e00000a003e00949f8000a59f800002002000c1
:104e1000031224000400be00d9ed07000002be000a
:104e2000949f8800a59f88001b00370025aa80005a
:104e3000f42f2000848f52000a003e00949f8000cf
:104e4000a59f80000200200003f823000400be009c
:104e5000cced07000002be00949f8800a59f88004b
:104e60000d00370025aa8000f43f2000848f5200f7
:104e700009003e00949f8000a59f80000200200052
:104e8000031224000400be00beed07000002be00b5
:104e9000949f8800a59f88000002eb0094aa8800d8
:104ea000a4aa8000e10f52003b003a00000000007d
:104eb0000000000025aa8000f40f2000848f52001b
:104ec0000a003e00d49f8000e59f80000200200081
:104ed00003f823000400be00a9ed07000002be0095
:104ee000d49f8800e59f88002900370025aa80000c
:104ef000f41f2000848f52000a003e00d49f8000df
:104f0000e59f800002002000031224000400be0080
:104f10009bed07000002be00d49f8800e59f88003b
:104f20001b00370025aa8000f42f2000848f520038
:104f30000a003e00d49f8000e59f80000200200010
:104f400003f823000400be008eed07000002be003f
:104f5000d49f8800e59f88000d00370025aa8000b7
:104f6000f43f2000848f520009003e00d49f80004f
:104f7000e59f800002002000031224000400be0010
:104f800080ed07000002be00d49f8800e59f8800e6
:104f90000002eb00a4aa8800b4aa8000e10f52002e
:104fa0003b003a00000000000000000025aa80003d
:104fb000f40f2000848f52000a003e00b49f80004e
:104fc000c59f80000200200003f823000400be00fb
:104fd0006bed07000002be00b49f8800c59f8800eb
:104fe0002900370025aa8000f41f2000848f52007a
:104ff0000a003e00b49f8000c59f80000200200090
:10500000031224000400be005ded07000002be0094
:10501000b49f8800c59f88001b00370025aa800028
:10502000f42f2000848f52000a003e00b49f8000bd
:10503000c59f80000200200003f823000400be008a
:1050400050ed07000002be00b49f8800c59f880095
:105050000d00370025aa8000f43f2000848f520005
:1050600009003e00b49f8000c59f80000200200020
:10507000031224000400be0042ed07000002be003f
:10508000b49f8800c59f88000002eb00b4aa880086
:10509000a49e8000e00f52000b003a001000200098
:1050a000f7fc07000042780084427800a644210003
:1050b000054b780014002000a49e88000002eb003d
:1050c000043a88000100370000000000cc0207000d
:1050d0000480200014427800e04f5200100032009b
:1050e00001fd070000427800e04f520002003a0044
:1050f0003dfb07000a0037002480200004007800f0
:105100003e07070000027800040f78001e027800b6
:10511000e00f5200020032001e007800210007005c
:105120000480200014427800e04f52000500320055
:10513000a40207000042eb008442780006802000b1
:10514000054b7800e50207000000000000000000a9
:10515000f5fe37000000fa0035048000040024004a
:1051600004826200e00f52000c003200b411800093
:105170000442780004437800653d2100864a7800a7
:105180000000000000000000643d2100144278008f
:105190000482fb002411880087c0a9000080fa0067
:1051a000000006000200fa00000f78001e027800de
:1051b000e10f520006003a00843e200094ab8800c4
:1051c000843e200084ab8800c4e2a800260037009b
:1051d0001e027800e20f520006003a0084c12f0040
:1051e00094ab880084c12f0084ab8800c4c2a8009f
:1051f0001d0037001e027800e30f520006003a003f
:10520000843e200094ab880084c12f0084ab8800ca
:10521000c4a2a800140037001e027800e40f520058
:1052200006003a0084c12f0094ab8800843e200021
:1052300084ab8800c482a8000b0037001e027800ef
:10524000e50f520008003a000002eb0094ab880022
:105250000002eb0084ab8800c4e2a900c4c2a9002c
:10526000c4a2a900c482a9000080fa0000000600c0
:105270000000fa000080fa00000006000000fa00ba
:105280000080fa00000006000000fa000080fa002a
:10529000000006000000fa000080fa00000006008e
:1052a0000000fa000080fa00000006000000fa008a
:1052b0000080fa00000006000000fa00c762a900a2
:1052c000c742a900c7a2a900d202a900d222a90000
:1052d000d242a900d262a9000002eb00240c88008f
:1052e0000002eb00540c88000002eb00840c8800e4
:1052f0000002eb00b40c88008a61a9000002eb00f8
:10530000140c88000002eb00440c88000002eb0043
:10531000740c88000002eb00a40c88000002eb0073
:10532000040c88000002eb00340c88000002eb0043
:10533000640c88000002eb00940c8800240c8000b0
:105340000400a1000410a0000420a000240c880088
:10535000540c80000400a1000410a0000420a00050
:10536000540c8800840c80000400a1000410a000ec
:105370000420a000840c8800b40c80000400a1006c
:105380000410a0000420a000b40c8800d342a9009f
:10539000d362a90014002000e4a58800cb42a80035
:1053a000cb82a900cb62a800cba2a9008461a9008e
:1053b0000002eb0084088800840880000440a100fb
:1053c0000450a100840888000002eb003408880023
:1053d00004f42100640888003405800004c0a000a3
:1053e00004d0a10004e0a1003405880084e0a900f5
:1053f00094e0a80011e1a8000420200024aa88005d
:105400000080fa0000000600849fbe00861f78001e
:105410003400f80004002000a40188000000fa0015
:10542000000000000000000014c0b3000443780036
:10543000e54b2100864a78000000000000000000d3
:10544000000000000000000084e0a9000080fa00d5
:105450003400f9004f0378004f02be000040060000
:105460000000fa00881f780084aa8000e10f520033
:10547000ce003a00e49e8000e00f52001400340099
:10548000e4a58000e10f520006003a000002eb00a4
:10549000e4a588006022b800549f8800659f8800ba
:1054a0000b003700e49e8000e00f520008003d0032
:1054b000e4a58000e00f520005003a00140020002f
:1054c000e4a588006022b800549f8800659f88008a
:1054d000e49e800014a68800e49e800024a6880034
:1054e00015a6800094ab800004824200e00f5200b9
:1054f0002700340015a6800094ab8000048242008f
:1055000004f0a7000402ea00cfa2de000400be00ff
:105510007ded07000002be0018c0b30002002000ad
:10552000a35f24000400be0037ed070000027800ee
:10553000e00f5200010035000044eb00e04f540042
:105540000e00320015a6800094ab80000482420059
:1055500004f0a7000402ea00cfa2de000400be00af
:1055600069ed07000002be000400be004bed07001d
:105570000002be00040278000100370004f421009c
:10558000340c88000002eb00940c880026003700e1
:105590000002eb00340c880015a6800094ab80005c
:1055a0000482420004f0a7000402ea00cfa2de0059
:1055b0000400be0054ed07000002be0018c0b30096
:1055c00002002000a35f24000400be000eed0700cf
:1055d00000027800e00f5200010035000044eb00ab
:1055e000e04f54000e00320015a6800094ab8000fe
:1055f0000482420004f0a7000402ea00cfa2de0009
:105600000400be0040ed07000002be000400be0022
:1056100022ed07000002be000402780001003700fe
:1056200004f42100940c880025a6800084ab80003f
:1056300004824200e00f52002700340025a68000bb
:1056400084ab80000482420004f0a7000402ea0058
:10565000cfa2de000400be002bed07000002be005a
:1056600018c0b30002002000a35f24000400be00a5
:10567000e5ec070000027800e00f52000100350061
:105680000044eb00e04f54000e00320025a68000dd
:1056900084ab80000482420004f0a7000402ea0008
:1056a000cfa2de000400be0017ed07000002be001e
:1056b0000400be00f9ec07000002be0004027800fe
:1056c0000100370004f42100040c88000002eb0004
:1056d000640c8800260037000002eb00040c8800f0
:1056e00025a6800084ab80000482420004f0a7005d
:1056f0000402ea00cfa2de000400be0002ed0700b3
:105700000002be0018c0b30002002000a35f240006
:105710000400be00bcec070000027800e00f52005d
:10572000010035000044eb00e04f54000e00320051
:1057300025a6800084ab80000482420004f0a7000c
:105740000402ea00cfa2de000400be00eeec070077
:105750000002be000400be00d0ec07000002be0044
:10576000040278000100370004f42100640c880072
:1057700024a68000e00f520014003a0014a6800016
:10578000e00f520011003a000002eb00040c880008
:105790000002eb00640c88000002eb00340c88006f
:1057a0000002eb00940c8800080037000002eb00b8
:1057b000040c88000002eb00640c88000002eb007f
:1057c000340c88000002eb00940c880084e0a900ef
:1057d0004f0478000080fa00000006000000fa0084
:1057e00084aa8000e10f520045003a00e49e800048
:1057f000e00f52001b003400e4a58000e10f5200ce
:1058000005003a000002eb00e4a588006022b80021
:10581000549f8800659f8800e49e80008402780081
:1058200005f0a7008502ea0084ab800004824200f4
:10583000040c88000002eb00640c8800e49e8000e9
:105840008402780005f0a7008502ea0094ab80008e
:1058500004824200340c88000002eb00940c8800a3
:105860002f003700e49e8000e00f52001b003d0037
:10587000e4a58000e00f520005003a00140020006b
:10588000e4a588006022b800549f8800659f8800c6
:105890000002eb00040c8800e49e80008402780083
:1058a00005f0a7008502ea0084ab80000482420074
:1058b000640c88000002eb00340c8800e49e800039
:1058c0008402780005f0a7008502ea0094ab80000e
:1058d00004824200940c8800110037000002eb00a3
:1058e000040c88000002eb00640c88000002eb004e
:1058f000340c88000002eb00940c8800080037008c
:105900000002eb00040c88000002eb00340c88005d
:105910000002eb00640c88000002eb00940c88008d
:1059200084e0a9000080fa00000006000400fa00ec
:10593000008fbe000002eb00245088000002eb0044
:10594000345088000002eb00445088000002eb0055
:10595000545088000042eb0004437800158020007a
:10596000864a78000042eb0004437800058020005e
:10597000864a78000042eb0004437800359020000e
:10598000864a78000042eb0004437800259020000e
:10599000864a7800de62a90064052000c4118800f0
:1059a000840028008411880004402000941188009d
:1059b0006405200044118800840028000411880038
:1059c00004402000141188004405800004c0a00099
:1059d00004d0a00004e0a0004405880000000000fe
:1059e000c4ab800094029000041020000482620086
:1059f000e00f5200faff32000080fa0000000600bb
:105a00000200fa00004f78009e4278000582fb00f9
:105a1000a4118800c4ab80001e4378008682fb007e
:105a200025029800000000000000000000000000b7
:105a3000c4ab800094029000041020000482620035
:105a4000e00f5200faff32000080fa00000006006a
:105a50000000fa00b4022000a4118800c4ab80004a
:105a6000a50020002502980000000000c4ab8000c3
:105a7000940290000410200004826200e00f5200a3
:105a8000faff320000000000000000000080fa0071
:105a9000000006000000fa00000000000000000006
:105aa000b4022000a4118800c4ab8000d5002000ff
:105ab0002502980000000000000000000000000027
